:1000000019C033C032C0C6C23AC52FC02EC02DC0E1
:1000100093C12BC02AC029C028C027C026C026C033
:1000200024C023C022C021C020C040C41EC01DC0A7
:100030001CC01BC011241FBECFEFD4E0DEBFCDBF5C
:1000400011E0A0E0B1E0E6E6FDE102C005900D920E
:10005000AC33B107D9F722E0ACE3B1E001C01D92A7
:10006000A832B207E1F7DED97CCECACF1F920F9239
:100070000FB60F9211248F929F92AF92BF92CF92A0
:10008000DF92EF92FF922F933F934F935F936F9383
:100090007F938F939F93AF93BF93CF93EF93FF93F0
:1000A0004EE651E060E771E082E791E0B2D76091FF
:1000B000720170917301882777FD8095982FCADCB3
:1000C0002FE632E143E85BE3CCDD20E030E048ECB2
:1000D00052E4C7DD29DE20E030E048EC52E41FDCCA
:1000E0004B015C0160936A0170936B0180936C011A
:1000F00090936D0160916E0170916F01882777FD7B
:100100008095982FA7DC2FE632E143E85BE3A9DD79
:1001100020E030E048EC52E4A4DD06DE20E030E0F0
:1001200048EC52E4FCDB6B017C016093620170934C
:1001300063018093640190936501C501B4019F77C9
:100140002DEC3CEC4CEC5DE388DD18169CF4A5012D
:10015000940160915E0170915F01809160019091C6
:10016000610175DB60935E0170935F0180936001B4
:10017000909361012DEC3CEC4CEC5DE3C701B601C2
:100180009F776BDD18169CF4A701960160914601DC
:1001900070914701809148019091490158DB60932B
:1001A000460170934701809348019093490120E0F4
:1001B00030E048EC52E460915E0170915F01809103
:1001C0006001909161014DDD20E030E244E155E4B1
:1001D000A6DB6B017C0160935A0170935B018093F5
:1001E0005C0190935D0120E030E048EC52E46091C6
:1001F000460170914701809148019091490131DD9C
:1002000020E030E244E155E48ADB4B015C0160937D
:10021000420170934301809344019093450120E093
:1002200030E040E152E4C701B6011BDD4EDC20E0C6
:1002300030E040E251E473DB6B017C0160935601D6
:1002400070935701809358019093590120E030E05A
:1002500040E152E4C501B40104DD37DC20E030E0C8
:1002600040E251E45CDB60933E0170933F01809378
:10027000400190934101C701B601B9DB9B0177FFB3
:1002800004C022273327261B370BC091BB01213521
:1002900031053CF080E58093BA01C07FC093BB017B
:1002A00021C0C701B6019F773FDDA6DB6093BA018D
:1002B0006F7786EF689FB02C112420E030E040E299
:1002C00051E4C701B601CDDC92DB9B0177FF04C08E
:1002D00022273327261B370B6B2D620FC07F6C2B19
:1002E0006093BB0120E030E0A901C701B601B5DC95
:1002F0009091BA0187FD02C09F7701C090689093EA
:10030000BA0116BCFF91EF91CF91BF91AF919F9130
:100310008F917F916F915F914F913F912F91FF90BE
:10032000EF90DF90CF90BF90AF909F908F900F9005
:100330000FBE0F901F9018951F920F920FB60F923D
:1003400011242F933F934F935F936F937F938F93DA
:100350009F93AF93BF93EF93FF9380917C01813084
:10036000E9F460917D0170917E0180917F0190910F
:1003700080016F5F7F4F8F4F9F4F60937D01709320
:100380007E0180937F01909380012AE030E040E07D
:1003900050E03ADA3093BE012093BF01809174019E
:1003A000811133C08091790181112FC080917B012F
:1003B0008350823050F5319928C09091E301992300
:1003C00089F091509093E3018091B801807E892B50
:1003D0008093B80181E0809379018091B6018064B7
:1003E0008093B601109277018091B7018F77809347
:1003F000B7014A9904C085E080937B0106C08091D3
:1004000079018823C1F310927B0180917B018230B6
:1004100009F049C08091B2019091B301892B19F183
:1004200080917701811107C0809178018F5F80935F
:1004300078018093BC0181E0809377018091B701BE
:1004400080688093B7015D9A8091B6018061809346
:10045000B6018091B2019091B30101979093B301DD
:100460008093B2012AC08091B4019091B501892B8B
:1004700091F0109279015D988091B6018F7E809302
:10048000B6018091B4019091B50101979093B501A7
:100490008093B40112C04A9902C083E001C084E095
:1004A00080937B010AC010927B011092B3011092DD
:1004B000B2011092B5011092B40180917B0181309C
:1004C000B9F480917901813099F482E080937B01C5
:1004D00080910C0190910D019093B3018093B20132
:1004E00080910A0190910B019093B5018093B40122
:1004F00080917B01813071F48091790181110AC072
:1005000010927B011092B3011092B2011092B501CA
:100510001092B40116BCFF91EF91BF91AF919F91E2
:100520008F917F916F915F914F913F912F910F909C
:100530000FBE0F901F90189599D480E3F6D688EEE1
:1005400093E020E931E0F9013197F1F70197009745
:10055000D1F780E3EAD688EE93E020E931E0F901B3
:100560003197F1F701970097D1F78091A10189D6D2
:1005700088EE93E020E931E0F9013197F1F7019736
:100580000097D1F765E784E0B8D668E185E0B5D695
:1005900084E3CBC61F920F920FB60F9211243F92A5
:1005A0004F925F926F927F928F929F92AF92BF9283
:1005B000CF92DF92EF92FF920F931F932F933F936F
:1005C0004F935F936F937F938F939F93AF93BF935B
:1005D000CF93DF93EF93FF93199922C18091680025
:1005E0008E7F8093680080916B008D7F80936B007D
:1005F00086E39BD68FEF9FEF90932702809326028E
:100600008BEF86D68F778093B001833208F4FCC0DD
:1006100000E213E0C0EADFE08824839480E9A82E9A
:10062000BB24B39490E1392EA8958FE371D68093C3
:10063000B001823209F0E0C040E266E072E08FE390
:10064000C3D69093270280932602A8958FE360D6A5
:10065000F82E8FE35DD62F2D30E0382B3093030238
:10066000209302028FE354D6F82E8FE351D62F2D1C
:1006700030E0382B309305022093040220910202CF
:1006800030910302809126029091270228173907A2
:1006900009F0B2C080919F01811101C05C9A8091E4
:1006A0009F01813019F48BB183258BB980919F0113
:1006B000823009F45C98C8010197F1F79090A2018B
:1006C000692D70E080E090E0C3D92B013C0120E06F
:1006D00030E04AE755E4C5DA6B017C0120E030E008
:1006E00040E85FE318D987FD1EC020E03FEF4FE7E9
:1006F00057E4C701B601B1DA18168CF420E030E0F7
:1007000040E251E4C301B201ACDA76D9611571055A
:1007100079F0C5010197F1F761507109F7CFC70171
:10072000B6016AD902C061E070E0CB010197F1F730
:100730008091A001882329F04AE066EB71E0892DC1
:10074000FFD580919F01811101C05C9880919F012C
:10075000823009F45C9A80E3E8D5CE010197F1F785
:100760008091A1018ED5CE010197F1F765E784E074
:10077000C4D568E185E0C1D584E3D7D55091A20105
:10078000452F440F440F242F30E02D5F3F4F842F1F
:1007900090E028173907CCF0DC01AA5FBD4FFC01BF
:1007A000E054FE4F6C918081681769F0A6E0B2E0DA
:1007B000E0ECF1E08D91819382E0A632B807D1F7A9
:1007C0008092E00102C04F5FE2CF84E0589FF001C9
:1007D0001124E054FE4F608166FF0EC06770809167
:1007E000A101861749F06093A1018AE086D5609146
:1007F000A10181E090E0A7DA8BEF8AD58F7790E0B6
:1008000083970CF011CF02C08AE38FD580916800E6
:1008100081608093680080916B00826080936B00A0
:1008200065E784E06AD568E185E067D583E37DD537
:1008300084E37BD5FF91EF91DF91CF91BF91AF9191
:100840009F918F917F916F915F914F913F912F91E8
:100850001F910F91FF90EF90DF90CF90BF90AF90DE
:100860009F908F907F906F905F904F903F900F90F0
:100870000FBE0F901F901895EAE7F0E0108287EC0A
:1008800080937C008EE88083109294018081806444
:1008900080830895EAE7F0E0108286E480937C008C
:1008A0008EE8808380818064808308951F920F92F8
:1008B0000FB60F9211242F933F934F935F936F9333
:1008C0007F938F939F93AF93BF93EF93FF93809109
:1008D0009401813009F45BC078F0823009F464C07F
:1008E000833009F0BBC0809178009091790090939B
:1008F000980180939701AFC0809178009091790022
:1009000090939E0180939D0140910E018A3A91053A
:1009100028F4442319F010920E0130C09C012A5A89
:1009200031092A30310520F4413110F080E124C032
:100930009C01245B31092D30310520F4413210F047
:1009400080E21AC09C01215C31092031310520F47C
:10095000413310F080E310C09C01215D31092D303E
:10096000310520F4413450F080E406C08E3D9105FD
:1009700028F0413518F080E580930E018091B9018F
:100980008F7890910E01892B8093B90108C08091D6
:1009900078009091790090939801809397017ADF85
:1009A00082E0809394015AC0809178009091790000
:1009B00090939C0180939B0120917B01253059F4F9
:1009C00020910801309109018217930720F01092BD
:1009D0007B0110927C0180917B0181113CC0809150
:1009E00079018823C1F180919B0190919C01209114
:1009F00006013091070128173907A0F020918101E5
:100A0000222381F081E080937B0190917C01911100
:100A100022C010927D0110927E0110927F011092EF
:100A2000800114C02091080130910901281739076D
:100A300080F080917C0181110CC010927D01109298
:100A40007E0110927F011092800181E080937C01F1
:100A500002C010927C0110DF10929401FF91EF917F
:100A6000BF91AF919F918F917F916F915F914F91C6
:100A70003F912F910F900FBE0F901F9018951F92CE
:100A80000F920FB60F9211242F938F939F93809103
:100A90008101882359F1789480917B01811126C0CE
:100AA00080917C01811122C0339B20C086B184706B
:100AB0009091E10189131AC09091B601319911C04A
:100AC0002091E301222369F021502093E3018091DA
:100AD000B801807E822B8093B80181E080937901F8
:100AE00002C01092790190649093B6019F918F910A
:100AF0002F910F900FBE0F901F90189588B18063B3
:100B000088B987B18F7C87B975D385B5846085BD79
:100B100016BCEEE6F0E08081846080838AEF88BDB9
:100B20008FB780688FBF0895E1EBF0E0808184602B
:100B300080831092B200E0E7F0E0808184608083DF
:100B40008AEF8093B40008950F931F93CF93DF93A0
:100B500080910102853A09F4C5C0289A86B1847053
:100B60008093E1015C9A88E893E120E931E0F901A2
:100B70003197F1F701970097D1F75C9810927B01BC
:100B800010927C0140E45CE920E931E0339918C01F
:100B90005C9ACA010197F1F75C9888EE93E0F9013D
:100BA0003197F1F701970097D1F75C9A88EE93E0BF
:100BB000F9013197F1F701970097D1F75C98E6CFEB
:100BC0005D985E9A88E893E120E931E0F901319778
:100BD000F1F701970097D1F700919B0110919C01CB
:100BE0005D9A88E893E120E931E0F9013197F1F766
:100BF00001970097D1F75D985E9880E49CE926B153
:100C000024703091E10123130EC05C9AFC013197EE
:100C1000F1F75C98FC013197F1F75C9AFC01319790
:100C2000F1F75C98ECCF80E197E220E931E0F9013F
:100C30003197F1F701970097D1F7C0919B01D091BF
:100C40009C015C9AC8018C1B9D0B6AE070E0C8D5C2
:100C5000061B1109602F80E190E075D8612F81E1BA
:100C600090E071D86C2F82E190E06DD86D2F83E118
:100C700090E069D86091E10184E190E064D865EA90
:100C800083E090E060D880E991E05C9A28EE33E060
:100C9000FC013197F1F72150310921153105C1F7D8
:100CA0005C9828EB3BE0FC013197F1F721503109CA
:100CB00021153105C1F75C9A28EE33E0FC0131972C
:100CC000F1F72150310921153105C1F75C9820E178
:100CD00037E2FC013197F1F7215031092115310537
:100CE000C1F7D3CF80E190E026D8C82F81E190E012
:100CF00022D82C2F30E0382B3093090120930801A3
:100D000082E190E018D8C82F83E190E014D82C2F0E
:100D100030E0382B309307012093060184E190E006
:100D20000AD88093E1015E985D98289A88EE93E056
:100D300020E931E0F9013197F1F701970097D1F7F8
:100D400080919B0190919C012091060130910701B7
:100D500068EC71E040E25EE4319B0DC04A9B0BC041
:100D60002817390740F070939F01FA013197F1F786
:100D7000615091F702C010929F0140919F01413054
:100D800011F550E25093830150E15093820158E0F5
:100D9000509381014093850168EC73E040E25EE48A
:100DA000319B0DC04A990BC02817390740F070934A
:100DB0009F01FA013197F1F7615091F719C081E075
:100DC00080939F0115C068EC73E040E25EE4319BC4
:100DD0000DC04A990BC02817390740F070939F0146
:100DE000FA013197F1F7615091F702C010929F011B
:100DF00080919F01811101C0289880919F018330CB
:100E000081F58091A2018F5F8093A201883010F05C
:100E10001092A2016091A20180E090E094D75C9AC8
:100E200080E197E220E931E0F9013197F1F701978C
:100E30000097D1F75C9888E893E120E931E0F90167
:100E40003197F1F701970097D1F75C9A88E893E121
:100E500020E931E0F9013197F1F701970097D1F7D7
:100E60005C98DF91CF911F910F910895239A259A55
:100E7000229A24988CB580658CBD8CB58E7F8CBDF4
:100E80008CB58D7F8CBD8DB58E7F8DBD08951092F4
:100E9000B9008CE08093B800089594EA9093BC0068
:100EA0009091BC0097FFFCCF9091B900987F98304B
:100EB00021F0903111F081E008958093BB0084E827
:100EC0008093BC008091BC0087FFFCCF8091B9006B
:100ED000887F883111F0803471F780E0089524EA2A
:100EE00034E844E92093BC009091BC0097FFFCCF0C
:100EF0009091B900987F983011F0903199F78093D4
:100F0000BB003093BC009091BC0097FFFCCF909148
:100F1000B900987F903211F0983539F44093BC00B5
:100F20009091BC0094FDFCCFDDCF0895B6CF84E94D
:100F30008093BC008091BC0084FDFCCF0895809319
:100F4000BB0084E88093BC008091BC0087FFFCCF8D
:100F50009091B900987F81E0983209F480E008957B
:100F600084EC8093BC008091BC0087FFFCCF809113
:100F7000BB00089584E88093BC008091BC0087FF8B
:100F8000FCCF8091BB000895CF93DF931F92CDB724
:100F9000DEB782ED82DF86E2D2DF83EDC7DFEADFF4
:100FA0008983C5DF89818093A3010F90DF91CF9161
:100FB0000895CF9382ED71DF86E2C1DF83EDB6DF66
:100FC000D9DFC82FB4DF8091A3018C1BCF91089586
:100FD000EF92FF920F931F936093AC017093AD015A
:100FE0008093AE019093AF012093A8013093A901A3
:100FF0004093AA015093AB01E092A401F092A501A5
:101000000093A6011093A7011F910F91FF90EF90FD
:1010100008959F92AF92BF92CF92DF92EF92FF928C
:101020000F931F93CF93DF9300D000D000D0CDB7A4
:10103000DEB76C015B017A0182ED2FDF88EA7FDF8A
:1010400083ED74DF8E010F5F1F4F912C85E09812A6
:1010500003C090DF8E8303C083DFF8018083939405
:101060000F5F1F4FF6E09F12F1CF61DF2A8130E062
:10107000322F22278981282BF601318320838C810E
:1010800090E0982F88272B81822BF5019183808314
:101090008E8190E0982F88272D81822BF7019183F4
:1010A000808326960FB6F894DEBF0FBECDBFDF91CA
:1010B000CF911F910F91FF90EF90DF90CF90BF9055
:1010C000AF909F900895CF92DF92EF92FF920F938F
:1010D0001F93CF93DF93CDB7DEB72A970FB6F8945F
:1010E000DEBF0FBECDBF6C017B018A011E821D8257
:1010F0001C821B821A821982AE014F5F5F4FBE01B4
:101100006D5F7F4FCE01059684DF2091AC01309159
:10111000AD014091AE015091AF016D817E81882774
:1011200077FD8095982F2F83388749875A8792D4E7
:101130002F81388549855A8589D326E933E44BE8E0
:101140005DE38FD5F6016083718382839383209161
:10115000A8013091A9014091AA015091AB016B8186
:101160007C81882777FD8095982F2F833887498742
:101170005A8770D42F81388549855A8567D326E0F0
:1011800031E845E95DE36DD5F701608371838283C2
:1011900093832091A4013091A5014091A601509123
:1011A000A70169817A81882777FD8095982F2F8301
:1011B000388749875A874ED42F81388549855A8583
:1011C00045D32FED3FE44DE85DE34BD5F801608357
:1011D0007183828393832A960FB6F894DEBF0FBE85
:1011E000CDBFDF91CF911F910F91FF90EF90DF90D6
:1011F000CF9008954CDE85E38A95F1F7000082EDEB
:101200004CDE80E29CDE8FE09ADE91DE82ED45DEF0
:1012100083E295DE80E293DE8ADE8CEE91E5A8E83B
:10122000B1EC8093AC019093AD01A093AE01B0936B
:10123000AF0185E89BEEA1EDB0EC8093A8019093FF
:10124000A901A093AA01B093AB0180E090E0A4EAC9
:10125000B1EC8093A4019093A501A093A601B09353
:10126000A70192CE2A989EE79EBD0DB407FEFDCF42
:1012700098E08EBD0DB407FEFDCF9150D1F72A9AAC
:101280000895CF93C82F4CE26FE071E080E006D064
:101290006C2F8AE032D080ECCF91E4CF2A98806422
:1012A0008EBD0DB407FEFDCF362FFB018FEF9FEFF4
:1012B0002E2F231B2417F8F4DF0121912EBD2C9132
:1012C0008227282F22952827022E2695269520252D
:1012D000022E269520252770082E892F2695079403
:1012E0002795902D822706942795902582270DB467
:1012F00007FEFDCFDDCF2A9A08952A988EBD0DB442
:1013000007FEFDCF6EBD0DB407FEFDCF2A9A0895EE
:101310002A9880688EBD0DB407FEFDCF1EBC0DB4AB
:1013200007FEFDCF2A9A8EB508952A9895E39A95DF
:10133000F1F700008EBD0DB407FEFDCF2A9A089587
:10134000EF92FF921F93CF93DF931F92CDB7DEB73B
:10135000182F7B01A89586E3E8DF8BE3E6DF6EE0DC
:1013600086E0CBDF6DE08FE3C8DF612F8FE3C5DF61
:101370004AE0B7018FE392DF682F8FE39983BDDFE7
:101380009981692F8FE3B9DF68E184E0B6DF65E713
:1013900085E0B3DF85E3C9DFA895199BFECF1999D6
:1013A000FECF6FEF86E0A9DF65E784E0A6DF68E1A6
:1013B00085E0A3DF84E3B9DFA8950F90DF91CF919B
:1013C0001F91FF90EF9008952A98806C8EBD0DB408
:1013D00007FEFDCF362FFB018FEF9FEF2E2F231B34
:1013E0002417F0F41EBC0DB407FEFDCF2EB52193DB
:1013F0008227282F22952827022E269526952025FC
:10140000022E269520252770082E892F26950794D1
:101410002795902D82270694279590258227DECF49
:101420002A9A08958BB190E189278BB91092A00177
:1014300080E8809361001092610010927B0110920D
:1014400079011092E00180E29EE49093760180930E
:1014500075011092740181E0809302011092820163
:1014600010928301109281013998419A3A98429AD8
:101470003B98439A52985A9A569A559A549A209A57
:1014800080E090E058D4C82F8093A20181E090E0E2
:1014900052D48093A10183E090E04DD48093010267
:1014A000C83030F060E080E090E04DD41092A201AE
:1014B0008091A101883030F060E081E090E043D479
:1014C0001092A101E6EBF1E0119221E0E03CF2077D
:1014D000D9F71092B60130D8CFD9219829988091A8
:1014E000680081608093680080916B0082608093C7
:1014F0006B008091680081608093680080916B0030
:10150000826080936B007894F9DA0EDB3A98429A05
:101510008091680082608093680080916C00846094
:1015200080936C00109279011092B7010DDBE6DA1E
:10153000FBDAA8952EE088E190E00FB6F894A89524
:10154000809360000FBE20936000809160008064F3
:101550008093600080916000877F8093600005E049
:1015600011E080910E01882331F08091830188235E
:1015700011F0289A01C02898909182018091B901B8
:10158000992319F05E9A806802C05E988F778093E5
:10159000B901909179018091B601992311F080648D
:1015A00001C08F7B8093B6018091B601339902C050
:1015B000806201C08F7D8093B601319B15C0809100
:1015C0007401811111C0809175019091760101968D
:1015D0009093760180937501202F2A95F1F7803240
:1015E0009E4411F41093740131992DC080917401BF
:1015F000813049F580917501909176010197909322
:10160000760180937501892BF1F410927401809119
:1016100002018F5F80930201109278011092BC0149
:101620008B3010F010920201909102018091030121
:10163000891710F410920201809102019091B70174
:10164000892B8093B7018091A001811107C0319946
:1016500003C01092740102C0109374019091740140
:101660008091B601911102C0886001C0877F80938C
:10167000B601909177018091B701992311F08068AC
:1016800001C08F778093B7018091B7014A9902C05A
:10169000806201C08F7D8093B7018091B801807E08
:1016A0009091E301892B8093B8018091E001882318
:1016B00009F493C08091850181118FC0C091A2016E
:1016C000CC0FCC0FD0E0C054DE4F688167FF06C05E
:1016D00067706093A20180E090E035D3688166FF77
:1016E00006C067706093A10181E090E02CD39881DF
:1016F000892F807280938301882319F090719093D1
:101700008201209182019091B901222329F088233E
:1017100019F05E9A906802C05E989F779093B90125
:1017200080918301882321F08881887080938101D2
:101730009981892F807E803299F0803E19F5109230
:10174000780110927901109202011092E301109237
:1017500003011092BC018091B801807E8093B80192
:101760009F71909387018A818F71809384019B3050
:1017700020F490930301109302018F3161F1809363
:10178000E30129C0803451F48A8190E090930901EB
:10179000809308018B81809305011DC0803651F430
:1017A0008A8190E090930701809306018B8180935A
:1017B000040111C0803839F48B8190E090930D01C1
:1017C00080930C0108C0803A31F48B8190E09093B3
:1017D0000B0180930A011092E0011093A001C1CE89
:1017E000AA1BBB1B51E107C0AA1FBB1FA617B70747
:1017F00010F0A61BB70B881F991F5A95A9F7809563
:101800009095BC01CD010895A1E21A2EAA1BBB1B25
:10181000FD010DC0AA1FBB1FEE1FFF1FA217B307BC
:10182000E407F50720F0A21BB30BE40BF50B661FD2
:10183000771F881F991F1A9469F760957095809596
:1018400090959B01AC01BD01CF0108955058BB2775
:10185000AA270ED0B1C1A2D130F0A7D120F031F427
:101860009F3F11F41EF497C10EF4E095E7FB64C1AD
:10187000E92FB3D180F3BA1762077307840795077E
:1018800018F071F49EF5E2C10EF4E0950B2EBA2F1C
:10189000A02D0B01B90190010C01CA01A001112476
:1018A000FF27591B99F0593F50F4503E68F11A1622
:1018B000F040A22F232F342F4427585FF3CF4695B3
:1018C00037952795A795F0405395C9F77EF41F16D5
:1018D000BA0B620B730B840BBAF09150A1F0FF0F9F
:1018E000BB1F661F771F881FC2F70EC0BA0F621F8B
:1018F000731F841F48F4879577956795B795F7957B
:101900009E3F08F0B3CF9395880F08F09927EE0F0C
:10191000979587950895ECD008F481E008950CD050
:101920004BC143D140F03AD130F021F45F3F19F080
:1019300003C151118CC12FC150D198F39923C9F320
:101940005523B1F3951B550BBB27AA2762177307C5
:10195000840738F09F5F5F4F220F331F441FAA1F79
:10196000A9F333D00E2E3AF0E0E830D09150504039
:10197000E695001CCAF729D0FE2F27D0660F771FE7
:10198000881FBB1F261737074807AB07B0E809F0C9
:10199000BB0B802DBF01FF2793585F4F2AF09E3F5E
:1019A000510568F0C9C053C15F3FECF3983EDCF3CA
:1019B000869577956795B795F7959F5FC9F7880FD7
:1019C000911D9695879597F90895E1E0660F771F29
:1019D000881FBB1F621773078407BA0720F0621BBA
:1019E000730B840BBA0BEE1F88F7E095089504D0B3
:1019F0006894B1112CC10895F8D088F09F5790F0E9
:101A0000B92F9927B751A0F0D1F0660F771F881F23
:101A1000991F1AF0BA95C9F712C0B13081F016D1EA
:101A2000B1E0089513C1672F782F8827B85F39F088
:101A3000B93FCCF3869577956795B395D9F73EF482
:101A400090958095709561957F4F8F4F9F4F08952A
:101A5000E89409C097FB3EF4909580957095619548
:101A60007F4F8F4F9F4F9923A9F0F92F96E9BB27FE
:101A70009395F695879577956795B795F111F8CF7A
:101A8000FAF4BB0F11F460FF1BC06F5F7F4F8F4FE5
:101A90009F4F16C0882311F096E911C0772321F0DB
:101AA0009EE8872F762F05C0662371F096E8862F73
:101AB00070E060E02AF09A95660F771F881FDAF7CA
:101AC000880F9695879597F90895A9D080F09F374C
:101AD00040F491110EF0BBC060E070E080E89FEB35
:101AE000089526F41B16611D711D811D2BC045C074
:101AF000990F0008550FAA0BE0E8FEEF161617061F
:101B0000E807F907C0F012161306E407F50798F086
:101B1000621B730B840B950B39F40A2661F0232B9F
:101B2000242B252B21F408950A2609F4A140A6951B
:101B30008FEF811D811D089597F99F6780E870E000
:101B400060E00895882371F4772321F09850872B63
:101B5000762F07C0662311F499270DC09051862B6C
:101B600070E060E02AF09A95660F771F881FDAF719
:101B7000880F9695879597F908959F3F31F091507A
:101B800020F4879577956795B795880F911D969561
:101B9000879597F908959FEF80EC089500240A94A3
:101BA0001616170618060906089500240A94121638
:101BB0001306140605060895092E0394000C11F46B
:101BC000882352F0BB0F40F4BF2B11F460FF04C018
:101BD0006F5F7F4F8F4F9F4F089557FD9058440F71
:101BE000551F59F05F3F71F04795880F97FB991F7C
:101BF00061F09F3F79F08795089512161306140639
:101C0000551FF2CF4695F1DF08C0161617061806C5
:101C1000991FF1CF86957105610508940895E5DF58
:101C2000A0F0BEE7B91788F4BB279F3860F41616FA
:101C3000B11D672F782F8827985FF7CF8695779506
:101C40006795B11D93959639C8F30895E894BB271D
:101C500066277727CB0197F908954ADF08F48FEFBD
:101C600008950BD0A9CF9ADF28F09FDF18F09523B5
:101C700009F062CF90CF1124EACFAFDFA0F3959F98
:101C8000D1F3950F50E0551F629FF001729FBB2763
:101C9000F00DB11D639FAA27F00DB11DAA1F649F0F
:101CA0006627B00DA11D661F829F2227B00DA11DC2
:101CB000621F739FB00DA11D621F839FA00D611D48
:101CC000221F749F3327A00D611D231F849F600D69
:101CD000211D822F762F6A2F11249F5750408AF0A2
:101CE000E1F088234AF0EE0FFF1FBB1F661F771F2E
:101CF000881F91505040A9F79E3F510570F01CCFAE
:101D0000A6CF5F3FECF3983EDCF386957795679519
:101D1000B795F795E7959F5FC1F7FE2B880F911D4B
:101D20009695879597F908957ADF20F09F3708F404
:101D30008ECF08CF22CFF999FECF92BD81BDF89A00
:101D4000992780B50895262FF999FECF1FBA92BD25
:101D500081BD20BD0FB6F894FA9AF99A0FBE01968C
:061D60000895F894FFCF86
:101D66003000010AC8145800B00023001400602E89
:101D76002E06457518FF044500000C0010A95A5D93
:101D86003B1342F862073F181D1CC700B0876BF86B
:0C1D9600B610EA2A001F4100597F3F00F0
:00000001FF
